{
  "contractName": "Adoption",
  "abi": [
    {
      "constant": true,
      "inputs": [
        {
          "name": "",
          "type": "uint256"
        }
      ],
      "name": "Adopters",
      "outputs": [
        {
          "name": "",
          "type": "address"
        }
      ],
      "payable": false,
      "stateMutability": "view",
      "type": "function"
    },
    {
      "constant": true,
      "inputs": [],
      "name": "getAdopters",
      "outputs": [
        {
          "name": "",
          "type": "address[16]"
        }
      ],
      "payable": false,
      "stateMutability": "view",
      "type": "function"
    },
    {
      "constant": false,
      "inputs": [
        {
          "name": "petID",
          "type": "uint256"
        }
      ],
      "name": "adopt",
      "outputs": [
        {
          "name": "",
          "type": "uint256"
        }
      ],
      "payable": false,
      "stateMutability": "nonpayable",
      "type": "function"
    }
  ],
  "bytecode": "0x608060405234801561001057600080fd5b506102f3806100206000396000f3fe608060405260043610610057576000357c0100000000000000000000000000000000000000000000000000000000900463ffffffff16806333839ce41461005c5780633de4eb17146100d75780638588b2c51461012a575b600080fd5b34801561006857600080fd5b506100956004803603602081101561007f57600080fd5b8101908080359060200190929190505050610179565b604051808273ffffffffffffffffffffffffffffffffffffffff1673ffffffffffffffffffffffffffffffffffffffff16815260200191505060405180910390f35b3480156100e357600080fd5b506100ec6101ae565b6040518082601060200280838360005b838110156101175780820151818401526020810190506100fc565b5050505090500191505060405180910390f35b34801561013657600080fd5b506101636004803603602081101561014d57600080fd5b810190808035906020019092919050505061022f565b6040518082815260200191505060405180910390f35b60008160108110151561018857fe5b016000915054906101000a900473ffffffffffffffffffffffffffffffffffffffff1681565b6101b66102a3565b6000601080602002604051908101604052809291908260108015610225576020028201915b8160009054906101000a900473ffffffffffffffffffffffffffffffffffffffff1673ffffffffffffffffffffffffffffffffffffffff16815260200190600101908083116101db575b5050505050905090565b600080821180156102415750600f8211155b151561024c57600080fd5b3360008360108110151561025c57fe5b0160006101000a81548173ffffffffffffffffffffffffffffffffffffffff021916908373ffffffffffffffffffffffffffffffffffffffff160217905550819050919050565b6102006040519081016040528060109060208202803883398082019150509050509056fea165627a7a723058208c9ef5cfaa7a0a6982dddd5f9665f97cf74feb7d015219c0e8ddfb916684a7930029",
  "source": "pragma solidity ^0.5.0;\n\n\ncontract Adoption {\n  address[16] public Adopters;\n\n  function getAdopters() public view returns(address[16] memory){\n  return Adopters;\n  }\n\n  function adopt(uint petID) public returns(uint)\n  {\n  require(petID>0 && petID<=15);\n  Adopters[petID] = msg.sender;\n  return petID;\n  }\n}\n",
  "sourcePath": "/home/sarvesh/Desktop/pet-shop/contracts/Adoption.sol",
  "compiler": {
    "name": "solc",
    "version": "0.5.0+commit.1d4f565a.Emscripten.clang"
  },
  "schemaVersion": "3.0.0",
  "updatedAt": "2019-03-20T12:55:04.131Z",
  "devdoc": {
    "methods": {}
  },
  "userdoc": {
    "methods": {}
  }
}