{
  "contractName": "Farm1",
  "abi": [
    {
      "constant": false,
      "inputs": [
        {
          "name": "_faadhar",
          "type": "string"
        },
        {
          "name": "_GSTNo",
          "type": "string"
        },
        {
          "name": "_retailer",
          "type": "string"
        },
        {
          "name": "_pincode",
          "type": "string"
        },
        {
          "name": "_day",
          "type": "string"
        },
        {
          "name": "_seedname",
          "type": "string"
        },
        {
          "name": "_seedgrade",
          "type": "uint256"
        },
        {
          "name": "_fname",
          "type": "string"
        },
        {
          "name": "_fergrade",
          "type": "uint256"
        },
        {
          "name": "_item",
          "type": "string"
        },
        {
          "name": "_ECsensor",
          "type": "string"
        }
      ],
      "name": "setFarmer",
      "outputs": [],
      "payable": false,
      "stateMutability": "nonpayable",
      "type": "function",
      "signature": "0xb4206971"
    },
    {
      "constant": false,
      "inputs": [
        {
          "name": "_retailer",
          "type": "string"
        },
        {
          "name": "_pincode",
          "type": "string"
        },
        {
          "name": "_item",
          "type": "string"
        }
      ],
      "name": "getFarmer",
      "outputs": [
        {
          "name": "",
          "type": "string"
        },
        {
          "name": "",
          "type": "string"
        },
        {
          "name": "",
          "type": "string"
        },
        {
          "name": "",
          "type": "uint256"
        },
        {
          "name": "",
          "type": "uint256"
        },
        {
          "name": "",
          "type": "string"
        },
        {
          "name": "",
          "type": "string"
        },
        {
          "name": "",
          "type": "uint256"
        }
      ],
      "payable": false,
      "stateMutability": "nonpayable",
      "type": "function",
      "signature": "0x1c7bc0cf"
    }
  ],
  "bytecode": "0x6080604052600080556000606555600060665560156067556000606855600060695534801561002d57600080fd5b5061138a8061003d6000396000f3fe60806040526004361061004c576000357c0100000000000000000000000000000000000000000000000000000000900463ffffffff1680631c7bc0cf14610051578063b420697114610485575b600080fd5b34801561005d57600080fd5b506102456004803603606081101561007457600080fd5b810190808035906020019064010000000081111561009157600080fd5b8201836020820111156100a357600080fd5b803590602001918460018302840111640100000000831117156100c557600080fd5b91908080601f016020809104026020016040519081016040528093929190818152602001838380828437600081840152601f19601f8201169050808301925050505050505091929192908035906020019064010000000081111561012857600080fd5b82018360208201111561013a57600080fd5b8035906020019184600183028401116401000000008311171561015c57600080fd5b91908080601f016020809104026020016040519081016040528093929190818152602001838380828437600081840152601f19601f820116905080830192505050505050509192919290803590602001906401000000008111156101bf57600080fd5b8201836020820111156101d157600080fd5b803590602001918460018302840111640100000000831117156101f357600080fd5b91908080601f016020809104026020016040519081016040528093929190818152602001838380828437600081840152601f19601f820116905080830192505050505050509192919290505050610a1a565b60405180806020018060200180602001898152602001888152602001806020018060200187815260200186810386528e818151815260200191508051906020019080838360005b838110156102a757808201518184015260208101905061028c565b50505050905090810190601f1680156102d45780820380516001836020036101000a031916815260200191505b5086810385528d818151815260200191508051906020019080838360005b8381101561030d5780820151818401526020810190506102f2565b50505050905090810190601f16801561033a5780820380516001836020036101000a031916815260200191505b5086810384528c818151815260200191508051906020019080838360005b83811015610373578082015181840152602081019050610358565b50505050905090810190601f1680156103a05780820380516001836020036101000a031916815260200191505b50868103835289818151815260200191508051906020019080838360005b838110156103d95780820151818401526020810190506103be565b50505050905090810190601f1680156104065780820380516001836020036101000a031916815260200191505b50868103825288818151815260200191508051906020019080838360005b8381101561043f578082015181840152602081019050610424565b50505050905090810190601f16801561046c5780820380516001836020036101000a031916815260200191505b509d505050505050505050505050505060405180910390f35b34801561049157600080fd5b50610a1860048036036101608110156104a957600080fd5b81019080803590602001906401000000008111156104c657600080fd5b8201836020820111156104d857600080fd5b803590602001918460018302840111640100000000831117156104fa57600080fd5b91908080601f016020809104026020016040519081016040528093929190818152602001838380828437600081840152601f19601f8201169050808301925050505050505091929192908035906020019064010000000081111561055d57600080fd5b82018360208201111561056f57600080fd5b8035906020019184600183028401116401000000008311171561059157600080fd5b91908080601f016020809104026020016040519081016040528093929190818152602001838380828437600081840152601f19601f820116905080830192505050505050509192919290803590602001906401000000008111156105f457600080fd5b82018360208201111561060657600080fd5b8035906020019184600183028401116401000000008311171561062857600080fd5b91908080601f016020809104026020016040519081016040528093929190818152602001838380828437600081840152601f19601f8201169050808301925050505050505091929192908035906020019064010000000081111561068b57600080fd5b82018360208201111561069d57600080fd5b803590602001918460018302840111640100000000831117156106bf57600080fd5b91908080601f016020809104026020016040519081016040528093929190818152602001838380828437600081840152601f19601f8201169050808301925050505050505091929192908035906020019064010000000081111561072257600080fd5b82018360208201111561073457600080fd5b8035906020019184600183028401116401000000008311171561075657600080fd5b91908080601f016020809104026020016040519081016040528093929190818152602001838380828437600081840152601f19601f820116905080830192505050505050509192919290803590602001906401000000008111156107b957600080fd5b8201836020820111156107cb57600080fd5b803590602001918460018302840111640100000000831117156107ed57600080fd5b91908080601f016020809104026020016040519081016040528093929190818152602001838380828437600081840152601f19601f820116905080830192505050505050509192919290803590602001909291908035906020019064010000000081111561085a57600080fd5b82018360208201111561086c57600080fd5b8035906020019184600183028401116401000000008311171561088e57600080fd5b91908080601f016020809104026020016040519081016040528093929190818152602001838380828437600081840152601f19601f82011690508083019250505050505050919291929080359060200190929190803590602001906401000000008111156108fb57600080fd5b82018360208201111561090d57600080fd5b8035906020019184600183028401116401000000008311171561092f57600080fd5b91908080601f016020809104026020016040519081016040528093929190818152602001838380828437600081840152601f19601f8201169050808301925050505050505091929192908035906020019064010000000081111561099257600080fd5b8201836020820111156109a457600080fd5b803590602001918460018302840111640100000000831117156109c657600080fd5b91908080601f016020809104026020016040519081016040528093929190818152602001838380828437600081840152601f19601f820116905080830192505050505050509192919290505050610f66565b005b6060806060600080606080600060156067819055506000606881905550600060698190555060006066819055505b6065546066541015610b1457610a6f603d606654601481101515610a6857fe5b018b611123565b15610afd57610a8f6029606654601481101515610a8857fe5b018c611123565b15610afc57610aaf60ba606654601481101515610aa857fe5b018a611123565b15610afb57607e606654601481101515610ac557fe5b015460a6606654601481101515610ad857fe5b015460685401016068819055506002606954016069819055506066546067819055505b5b5b606660008154809291906001019190505550610a48565b6015606754141515610eda57606954606854811515610b2f57fe5b04606881905550603d606754601481101515610b4757fe5b016029606754601481101515610b5957fe5b0160ba606754601481101515610b6b57fe5b0160a6606754601481101515610b7d57fe5b0154607e606754601481101515610b9057fe5b01546051606754601481101515610ba357fe5b0160ce606754601481101515610bb557fe5b01606854878054600181600116156101000203166002900480601f016020809104026020016040519081016040528092919081815260200182805460018160011615610100020316600290048015610c4e5780601f10610c2357610100808354040283529160200191610c4e565b820191906000526020600020905b815481529060010190602001808311610c3157829003601f168201915b50505050509750868054600181600116156101000203166002900480601f016020809104026020016040519081016040528092919081815260200182805460018160011615610100020316600290048015610cea5780601f10610cbf57610100808354040283529160200191610cea565b820191906000526020600020905b815481529060010190602001808311610ccd57829003601f168201915b50505050509650858054600181600116156101000203166002900480601f016020809104026020016040519081016040528092919081815260200182805460018160011615610100020316600290048015610d865780601f10610d5b57610100808354040283529160200191610d86565b820191906000526020600020905b815481529060010190602001808311610d6957829003601f168201915b50505050509550828054600181600116156101000203166002900480601f016020809104026020016040519081016040528092919081815260200182805460018160011615610100020316600290048015610e225780601f10610df757610100808354040283529160200191610e22565b820191906000526020600020905b815481529060010190602001808311610e0557829003601f168201915b50505050509250818054600181600116156101000203166002900480601f016020809104026020016040519081016040528092919081815260200182805460018160011615610100020316600290048015610ebe5780601f10610e9357610100808354040283529160200191610ebe565b820191906000526020600020905b815481529060010190602001808311610ea157829003601f168201915b5050505050915097509750975097509750975097509750610f59565b6000806000602060405190810160405280600081525092919060206040519081016040528060008152509291906020604051908101604052806000815250929190829250819150602060405190810160405280600081525090602060405190810160405280600081525090809050975097509750975097509750975097505b9397509397509397509397565b8a6001600054601481101515610f7857fe5b019080519060200190610f8c9291906112b9565b50896015600054601481101515610f9f57fe5b019080519060200190610fb39291906112b9565b50886029600054601481101515610fc657fe5b019080519060200190610fda9291906112b9565b5087603d600054601481101515610fed57fe5b0190805190602001906110019291906112b9565b5086605160005460148110151561101457fe5b0190805190602001906110289291906112b9565b5085606a60005460148110151561103b57fe5b01908051906020019061104f9291906112b9565b5084607e60005460148110151561106257fe5b018190555083609260005460148110151561107957fe5b01908051906020019061108d9291906112b9565b508260a66000546014811015156110a057fe5b01819055508160ba6000546014811015156110b757fe5b0190805190602001906110cb9291906112b9565b508060ce6000546014811015156110de57fe5b0190805190602001906110f29291906112b9565b5060008081548092919060010191905055506065600081548092919060010191905055505050505050505050505050565b6000808390506060839050805182805460018160011615610100020316600290049050141515611158576000925050506112b3565b600080819055505b8180546001816001161561010002031660029004905060005410156112ac578060005481518110151561118f57fe5b9060200101517f010000000000000000000000000000000000000000000000000000000000000090047f0100000000000000000000000000000000000000000000000000000000000000027effffffffffffffffffffffffffffffffffffffffffffffffffffffffffffff191682600054815460018160011615610100020316600290048110151561121d57fe5b81546001161561123c5790600052602060002090602091828204019190065b9054901a7f0100000000000000000000000000000000000000000000000000000000000000027effffffffffffffffffffffffffffffffffffffffffffffffffffffffffffff1916141515611296576000925050506112b3565b6000808154809291906001019190505550611160565b6001925050505b92915050565b828054600181600116156101000203166002900490600052602060002090601f016020900481019282601f106112fa57805160ff1916838001178555611328565b82800160010185558215611328579182015b8281111561132757825182559160200191906001019061130c565b5b5090506113359190611339565b5090565b61135b91905b8082111561135757600081600090555060010161133f565b5090565b9056fea165627a7a72305820fa804ad6a0bc19ac0637ef8c1de033167462765507136a18d559bea4b759f3e80029",
  "source": "pragma solidity ^0.5.0;\n//pragma solidity >=0.4.22 <0.6.0;\n\ncontract Farm1\n{\n    uint i=0;\n    string[20] faadhar;\n    string[20] GSTNo;\n    string[20] retailer;\n    string[20] pincode;\n    string[20] day;\n    uint insertcount=0;\n    uint j=0;\n    uint k=21;\n    uint avg=0;\n    uint count=0;\n\n    string[20] seedname;\n    uint[20] seedgrade;\n    string[20] fname;\n    uint[20] fergrade;\n    string[20] item;\n    string[20] ECsensor;\n    \n    function setFarmer(string memory _faadhar, string memory _GSTNo,string memory _retailer, string memory _pincode, string memory _day, string memory _seedname,uint _seedgrade, string memory _fname,uint _fergrade, string memory _item, string memory _ECsensor) public {\n        \n        faadhar[i]= _faadhar;\n        GSTNo[i] = _GSTNo;\n        retailer[i] = _retailer;\n        pincode[i] = _pincode;\n        day[i] = _day;\n       // month[i] = _month;\n       // year[i] = _year;\n        seedname[i]=_seedname;\n        seedgrade[i]=_seedgrade;\n        fname[i]=_fname;\n        fergrade[i]=_fergrade;\n        item[i] = _item;\n        ECsensor[i] = _ECsensor;\n        i++;\n        insertcount++;\n    }    \n        \n    \n    function stringsEqual(string storage _a, string memory _b) internal returns (bool) {\n\t\tbytes storage a = bytes(_a);\n\t\tbytes memory b = bytes(_b);\n\t\tif (a.length != b.length)\n\t\t\treturn false;\n\n\t\tfor (i = 0; i < a.length; i ++)\n\t\t\tif (a[i] != b[i])\n\t\t\t\treturn false;\n\t\treturn true;\n\t}\n    \n    function getFarmer(string memory _retailer, string memory _pincode, string memory _item) public returns(string memory,string memory,string memory,uint,uint,string memory,string memory,uint){\n      \n        k=21;\n        avg=0;\n        count=0;\n        for(j=0; j<insertcount; j++)\n        {\n            if(stringsEqual(pincode[j],_pincode))\n            {\n            if(stringsEqual(retailer[j],_retailer))\n            {\n                if(stringsEqual(item[j],_item))\n                {\n                       avg=avg+fergrade[j]+seedgrade[j];\n                    count=count+2;\n                       k=j;\n                           \n                       \n                }\n            }\n            }\n        }\n   \n        \n        if(k!=21){\n            avg=avg/count;\n            return (pincode[k],retailer[k],item[k],fergrade[k],seedgrade[k],day[k],ECsensor[k],avg);\n            //return (avg,count,fergrade[k],seedgrade[k],k,ECsensor[k],avg/count);\n            \n        }\n        else{\n            return (\"\",\"\",\"\",0,0,\"\",\"\",0);\n        }\n    \n    }\n\n        \n         \n}",
  "sourcePath": "/home/sarvesh/Desktop/pet-shop/contracts/Farm1.sol",
  "compiler": {
    "name": "solc",
    "version": "0.5.0+commit.1d4f565a.Emscripten.clang"
  },
  "schemaVersion": "3.0.0",
  "updatedAt": "2019-03-20T13:01:51.659Z",
  "devdoc": {
    "methods": {}
  },
  "userdoc": {
    "methods": {}
  }
}